{
  "contractName": "Lottery",
  "abi": [
    {
      "constant": true,
      "inputs": [],
      "name": "round",
      "outputs": [
        {
          "name": "",
          "type": "uint256"
        }
      ],
      "payable": false,
      "stateMutability": "view",
      "type": "function",
      "signature": "0x146ca531"
    },
    {
      "constant": true,
      "inputs": [
        {
          "name": "",
          "type": "uint256"
        }
      ],
      "name": "playersSlice",
      "outputs": [
        {
          "name": "",
          "type": "address"
        }
      ],
      "payable": false,
      "stateMutability": "view",
      "type": "function",
      "signature": "0x3be1439d"
    },
    {
      "constant": true,
      "inputs": [],
      "name": "manager",
      "outputs": [
        {
          "name": "",
          "type": "address"
        }
      ],
      "payable": false,
      "stateMutability": "view",
      "type": "function",
      "signature": "0x481c6a75"
    },
    {
      "constant": true,
      "inputs": [
        {
          "name": "",
          "type": "address"
        }
      ],
      "name": "playersMap",
      "outputs": [
        {
          "name": "",
          "type": "bool"
        }
      ],
      "payable": false,
      "stateMutability": "view",
      "type": "function",
      "signature": "0x979215de"
    },
    {
      "constant": true,
      "inputs": [],
      "name": "winner",
      "outputs": [
        {
          "name": "",
          "type": "address"
        }
      ],
      "payable": false,
      "stateMutability": "view",
      "type": "function",
      "signature": "0xdfbf53ae"
    },
    {
      "inputs": [],
      "payable": false,
      "stateMutability": "nonpayable",
      "type": "constructor",
      "signature": "constructor"
    },
    {
      "constant": false,
      "inputs": [],
      "name": "play",
      "outputs": [],
      "payable": true,
      "stateMutability": "payable",
      "type": "function",
      "signature": "0x93e84cd9"
    },
    {
      "constant": true,
      "inputs": [],
      "name": "getBalance",
      "outputs": [
        {
          "name": "",
          "type": "uint256"
        }
      ],
      "payable": false,
      "stateMutability": "view",
      "type": "function",
      "signature": "0x12065fe0"
    },
    {
      "constant": true,
      "inputs": [],
      "name": "getPlayersSlice",
      "outputs": [
        {
          "name": "",
          "type": "address[]"
        }
      ],
      "payable": false,
      "stateMutability": "view",
      "type": "function",
      "signature": "0xf5519d54"
    },
    {
      "constant": true,
      "inputs": [],
      "name": "getPlayersCnt",
      "outputs": [
        {
          "name": "",
          "type": "uint256"
        }
      ],
      "payable": false,
      "stateMutability": "view",
      "type": "function",
      "signature": "0xf0c05a73"
    },
    {
      "constant": false,
      "inputs": [],
      "name": "drawPrize",
      "outputs": [],
      "payable": false,
      "stateMutability": "nonpayable",
      "type": "function",
      "signature": "0x501335f7"
    },
    {
      "constant": false,
      "inputs": [],
      "name": "withdrawPrize",
      "outputs": [],
      "payable": false,
      "stateMutability": "nonpayable",
      "type": "function",
      "signature": "0x48d37a58"
    }
  ],
  "bytecode": "0x6080604052600060035534801561001557600080fd5b50336000806101000a81548173ffffffffffffffffffffffffffffffffffffffff021916908373ffffffffffffffffffffffffffffffffffffffff160217905550610b0f806100656000396000f3fe6080604052600436106100af576000357c0100000000000000000000000000000000000000000000000000000000900463ffffffff16806312065fe0146100b4578063146ca531146100df5780633be1439d1461010a578063481c6a751461018557806348d37a58146101dc578063501335f7146101f357806393e84cd91461020a578063979215de14610214578063dfbf53ae1461027d578063f0c05a73146102d4578063f5519d54146102ff575b600080fd5b3480156100c057600080fd5b506100c961036b565b6040518082815260200191505060405180910390f35b3480156100eb57600080fd5b506100f461038a565b6040518082815260200191505060405180910390f35b34801561011657600080fd5b506101436004803603602081101561012d57600080fd5b8101908080359060200190929190505050610390565b604051808273ffffffffffffffffffffffffffffffffffffffff1673ffffffffffffffffffffffffffffffffffffffff16815260200191505060405180910390f35b34801561019157600080fd5b5061019a6103ce565b604051808273ffffffffffffffffffffffffffffffffffffffff1673ffffffffffffffffffffffffffffffffffffffff16815260200191505060405180910390f35b3480156101e857600080fd5b506101f16103f3565b005b3480156101ff57600080fd5b5061020861055a565b005b610212610812565b005b34801561022057600080fd5b506102636004803603602081101561023757600080fd5b81019080803573ffffffffffffffffffffffffffffffffffffffff169060200190929190505050610941565b604051808215151515815260200191505060405180910390f35b34801561028957600080fd5b50610292610961565b604051808273ffffffffffffffffffffffffffffffffffffffff1673ffffffffffffffffffffffffffffffffffffffff16815260200191505060405180910390f35b3480156102e057600080fd5b506102e9610987565b6040518082815260200191505060405180910390f35b34801561030b57600080fd5b50610314610994565b6040518080602001828103825283818151815260200191508051906020019060200280838360005b8381101561035757808201518184015260208101905061033c565b505050509050019250505060405180910390f35b60003073ffffffffffffffffffffffffffffffffffffffff1631905090565b60035481565b60018181548110151561039f57fe5b906000526020600020016000915054906101000a900473ffffffffffffffffffffffffffffffffffffffff1681565b6000809054906101000a900473ffffffffffffffffffffffffffffffffffffffff1681565b3373ffffffffffffffffffffffffffffffffffffffff166000809054906101000a900473ffffffffffffffffffffffffffffffffffffffff1673ffffffffffffffffffffffffffffffffffffffff1614151561044e57600080fd5b60008090505b60018054905081101561054957600060018281548110151561047257fe5b9060005260206000200160009054906101000a900473ffffffffffffffffffffffffffffffffffffffff169050600260008273ffffffffffffffffffffffffffffffffffffffff1673ffffffffffffffffffffffffffffffffffffffff16815260200190815260200160002060006101000a81549060ff02191690558073ffffffffffffffffffffffffffffffffffffffff166108fc670de0b6b3a76400009081150290604051600060405180830381858888f1935050505015801561053c573d6000803e3d6000fd5b5050806001019050610454565b50600160006105589190610a9d565b565b3373ffffffffffffffffffffffffffffffffffffffff166000809054906101000a900473ffffffffffffffffffffffffffffffffffffffff1673ffffffffffffffffffffffffffffffffffffffff161415156105b557600080fd5b600060018054905090506000811115156105ce57600080fd5b6000816105da83610a22565b8115156105e357fe5b0690506001818154811015156105f557fe5b9060005260206000200160009054906101000a900473ffffffffffffffffffffffffffffffffffffffff16600460006101000a81548173ffffffffffffffffffffffffffffffffffffffff021916908373ffffffffffffffffffffffffffffffffffffffff16021790555060008061067361066e61036b565b610a72565b80925081935050506000809054906101000a900473ffffffffffffffffffffffffffffffffffffffff1673ffffffffffffffffffffffffffffffffffffffff166108fc829081150290604051600060405180830381858888f193505050501580156106e2573d6000803e3d6000fd5b50600460009054906101000a900473ffffffffffffffffffffffffffffffffffffffff1673ffffffffffffffffffffffffffffffffffffffff166108fc839081150290604051600060405180830381858888f1935050505015801561074b573d6000803e3d6000fd5b506003600081546001019190508190555060008090505b848110156107fd576002600060018381548110151561077d57fe5b9060005260206000200160009054906101000a900473ffffffffffffffffffffffffffffffffffffffff1673ffffffffffffffffffffffffffffffffffffffff1673ffffffffffffffffffffffffffffffffffffffff16815260200190815260200160002060006101000a81549060ff0219169055806001019050610762565b506001600061080c9190610a9d565b50505050565b670de0b6b3a76400003414151561082857600080fd5b600260003373ffffffffffffffffffffffffffffffffffffffff1673ffffffffffffffffffffffffffffffffffffffff16815260200190815260200160002060009054906101000a900460ff1615151561088157600080fd5b6001600260003373ffffffffffffffffffffffffffffffffffffffff1673ffffffffffffffffffffffffffffffffffffffff16815260200190815260200160002060006101000a81548160ff02191690831515021790555060013390806001815401808255809150509060018203906000526020600020016000909192909190916101000a81548173ffffffffffffffffffffffffffffffffffffffff021916908373ffffffffffffffffffffffffffffffffffffffff16021790555050565b60026020528060005260406000206000915054906101000a900460ff1681565b600460009054906101000a900473ffffffffffffffffffffffffffffffffffffffff1681565b6000600180549050905090565b60606001805480602002602001604051908101604052809291908181526020018280548015610a1857602002820191906000526020600020905b8160009054906101000a900473ffffffffffffffffffffffffffffffffffffffff1673ffffffffffffffffffffffffffffffffffffffff16815260200190600101908083116109ce575b5050505050905090565b600060604244846040516020018084815260200183815260200182815260200193505050506040516020818303038152906040529050600081805190602001209050806001900492505050919050565b6000806000600a60098502811515610a8657fe5b049050600081850390508181935093505050915091565b5080546000825590600052602060002090810190610abb9190610abe565b50565b610ae091905b80821115610adc576000816000905550600101610ac4565b5090565b9056fea165627a7a723058205c131436d2ac4dc41563c457f93072275665f042405c45ac98f2f378e791bc570029",
  "source": "pragma solidity ^0.5.0;\n\ncontract Lottery {\n\taddress payable public manager;\n\taddress payable[] public playersSlice;\n\tmapping(address => bool) public playersMap;\n\tuint256 public round = 0;\n\taddress payable public winner;\n\n\tconstructor() public {\n\t\tmanager = msg.sender;\n\t}\n\n\tmodifier onlyManager() {\n\t\trequire(manager == msg.sender);\n\t\t_;\n\t}\n\n\tfunction play() public payable {\n\t\trequire(msg.value == 1 ether);\n\t\trequire(!playersMap[msg.sender]);\n\t\tplayersMap[msg.sender] = true;\n\t\tplayersSlice.push(msg.sender);\n\t}\n\n\tfunction getBalance() public view returns(uint256) {\n\t\treturn address(this).balance;\n\t}\n\n\tfunction getPlayersSlice() public view returns(address payable[] memory) {\n\t\treturn playersSlice;\n\t}\n\n\tfunction getPlayersCnt() public view returns(uint256) {\n\t\treturn playersSlice.length;\n\t}\n\n\tfunction randomUInt256(uint256 seed) private view returns(uint256) {\n\t\tbytes memory v1 = abi.encodePacked(block.timestamp, block.difficulty, seed);\n\t\tbytes32 v2 = keccak256(v1);\n\t\treturn uint256(v2);\n\t}\n\n\tfunction calBonusAndIncome(uint256 balance) private pure returns(uint256, uint256) {\n\t\tuint256 bonus = balance * 9 / 10;\n\t\tuint256 income = balance - bonus;\n\t\treturn (bonus, income);\n\t}\n\n\tfunction drawPrize() onlyManager public {\n\t\tuint256 len = playersSlice.length;\n\t\trequire(len > 0);\n\t\tuint256 idx = randomUInt256(len) % len;\n\t\twinner = playersSlice[idx];\n\t\tuint256 bonus;\n\t\tuint256 income;\n\t\t(bonus, income) = calBonusAndIncome(getBalance());\n\t\tmanager.transfer(income);\n\t\twinner.transfer(bonus);\n\t\t++round;\n\t\tfor (uint256 i = 0; i < len; ++i) {\n\t\t\tdelete(playersMap[playersSlice[i]]);\n\t\t}\n\t\tdelete(playersSlice);\n\t}\n\n\tfunction withdrawPrize() onlyManager public {\n\t\tfor (uint256 i = 0; i < playersSlice.length; ++i) {\n\t\t\taddress payable player = playersSlice[i];\n\t\t\tdelete(playersMap[player]);\n\t\t\tplayer.transfer(1 ether);\n\t\t}\n\t\tdelete(playersSlice);\n\t}\n}\n",
  "sourcePath": "/root/workspace/eth-lottery/contracts/Lottery.sol",
  "compiler": {
    "name": "solc",
    "version": "0.5.0+commit.1d4f565a.Emscripten.clang"
  },
  "schemaVersion": "3.0.1",
  "updatedAt": "2019-02-06T06:08:29.790Z",
  "devdoc": {
    "methods": {}
  },
  "userdoc": {
    "methods": {}
  }
}